:040000004AEF04F0CF
:1008000000000F0EC16E000E956E9690969224BE5B
:1008100013EF04F0245009E1100E235CD8A013EF6D
:1008200004F015EF04F017EF04F048EF04F0235044
:10083000020DF350010FD96EDA6ADF508C6E23B0CF
:1008400024EF04F026EF04F02AEF04F08D908D825F
:100850002CEF04F08D808D920D0E226EAF0E216E66
:10086000B60EE82EFED7212EFCD7222EFAD700D0C6
:10087000234A242A24BE46EF04F0245009E1100E36
:10088000235CD8A046EF04F048EF04F017EF04F023
:1008900000EF00F0BA0EF66E080EF76E000EF86E5E
:1008A00000EE01F010EE20F00900F5CFEEFFE5506C
:1008B000E150FAE1000101EF04F03F0006005B00A7
:1008C0004F0066006D007D0007007F006700770025
:0A08D0007C0039005E007900710021
:020000040030CA
:0E000000000C1F1FFF8385FF0FC00FE00F4095
:00000001FF
