:04000000CBEF04F04E
:1008000000000F0EC16EF00E956E000E936E410E3D
:10081000216EEE0EE82EFED7212EFCD700D08C8064
:100820008C928C948C9683AE18EF04F01AEF04F03F
:100830001CEF04F007C08AFF83AC21EF04F023EF24
:1008400004F025EF04F005C08AFF83AA2AEF04F024
:100850002CEF04F02EEF04F003C08AFF83A833EFDF
:1008600004F035EF04F037EF04F015C08AFF410EB5
:10087000216EEE0EE82EFED7212EFCD700D08C90F4
:100880008C828C948C9683AE48EF04F04AEF04F08F
:100890004CEF04F00DC08AFF83AC51EF04F053EF2E
:1008A00004F055EF04F00BC08AFF83AA5AEF04F05E
:1008B0005CEF04F05EEF04F009C08AFF83A863EFE9
:1008C00004F065EF04F067EF04F017C08AFF410EF3
:1008D000216EEE0EE82EFED7212EFCD700D08C9094
:1008E0008C928C848C9683AE78EF04F07AEF04F0CF
:1008F0007CEF04F013C08AFF83AC81EF04F083EF38
:1009000004F085EF04F011C08AFF83AA8AEF04F097
:100910008CEF04F08EEF04F00FC08AFF83A893EFF2
:1009200004F095EF04F097EF04F019C08AFF410E30
:10093000216EEE0EE82EFED7212EFCD700D08C9033
:100940008C928C948C8683AEA8EF04F0AAEF04F00E
:10095000ACEF04F01FC08AFF83ACB1EF04F0B3EF3B
:1009600004F0B5EF04F001C08AFF83AABAEF04F0E7
:10097000BCEF04F0BEEF04F01DC08AFF83A8C3EFF4
:1009800004F0C5EF04F007EF04F01BC08AFF07EF87
:1009900004F000EF00F0BC0EF66E090EF76E000ECC
:1009A000F86E00EE01F010EE20F00900F5CFEEFF3A
:1009B000E550E150FAE1000101EF04F03F000600CC
:1009C0005B004F0066006D007C0047007F00670001
:0C09D00077007C0039005E0079007100A7
:020000040030CA
:0E000000000C1F1FFF8385FF0FC00FE00F4095
:00000001FF
