:0400000000EF06F017
:0F08000000496E67726573652050494E3A0000DB
:10081000000E1C6E000E1B6E20EE34F010EE0BF07E
:100820000F0EDBCFE3FFE806FCE2000E206E000EA9
:100830001F6E27EF04F0818045EF04F0818245EFC1
:1008400004F0818445EF04F0818645EF04F01FC079
:1008500007F020C008F00850000AD8B432EF04F0C6
:1008600045EF04F00750000AD8B41BEF04F0010A6A
:10087000D8B41EEF04F0030AD8B421EF04F0010A43
:10088000D8B424EF04F045EF04F0000E1E6E000E05
:100890001D6E81A84EEF04F050EF04F065EF04F0F8
:1008A00081AA55EF04F057EF04F065EF04F081AC36
:1008B0005CEF04F05EEF04F065EF04F081BE63EFDF
:1008C00004F065EF04F0A5EF04F01FC007F020C0AE
:1008D00008F0D89007360836D890073608361BC07F
:1008E00001F01CC002F0000E046E0A0E036E35EC1F
:1008F00006F007500124096E085002200A6E1D50B0
:1009000009261E500A22010E09241B6E000E0A2021
:100910001C6E81A88EEF04F090EF04F089EF04F0D4
:1009200081AA95EF04F097EF04F089EF04F081AC11
:100930009CEF04F09EEF04F089EF04F081AEA3EF8A
:1009400004F0A5EF04F089EF04F01D4A1E2A1EBE34
:10095000B3EF04F01E5009E1040E1D5CD8A0B3EF04
:1009600004F0B5EF04F049EF04F0C3EF04F0819018
:10097000E1EF04F08192E1EF04F08194E1EF04F003
:100980008196E1EF04F01FC007F020C008F0085086
:10099000000AD8B4CEEF04F0E1EF04F00750000AEB
:1009A000D8B4B7EF04F0010AD8B4BAEF04F0030AE0
:1009B000D8B4BDEF04F0010AD8B4C0EF04F0E1EF01
:1009C00004F01F4A202A20BEEFEF04F0205009E176
:1009D000040E1F5CD8A0EFEF04F0F1EF04F027EF56
:1009E00004F01BC032F01CC033F012005DEC06F0C6
:1009F00081A8FDEF04F0FFEF04F01AEF05F048ECDA
:100A000006F0010E056E010EA0EC05F0010E056E5C
:100A10001BEC06F008EC04F0D20E321807E1040ECD
:100A20003318D8A416EF05F018EF05F01AEF05F00B
:100A30006BEC06F081AA1FEF05F021EF05F023EF24
:100A400005F070EC06F082A428EF05F02AEF05F01F
:100A5000F8EF04F066EC06F0F8EF04F000EF00F0B9
:100A6000026E02C001F0010E0116013A8350011816
:100A7000EF0B0118836E02C001F0D8900132010E15
:100A80000116013A014683500118DF0B0118836EED
:100A900002C001F0D8900132D8900132010E011647
:100AA000013A0146014683500118BF0B0118836EBD
:100AB00002C001F0D8900132D8900132D8900132B2
:100AC000010E011601320132835001187F0B01180B
:100AD000836E1200340E056EF20EE82EFED7052E40
:100AE000FCD7030EE4EC05F00D0E056EFC0EE82EAF
:100AF000FED7052EFCD7030EE4EC05F01D0E056EA7
:100B0000910EE82EFED7052EFCD70000030EE4EC74
:100B100005F0030E056E980EE82EFED7052EFCD7C5
:100B2000020EE4EC05F0280EE4EC05F00C0EE4EC0B
:100B300005F0060EE4EC05F0010EE4EC05F0120001
:100B4000086E000E096EAFEF05F005507F0F096EBD
:100B5000C4EF05F00550BF0F096EC4EF05F0085053
:100B6000066E076A0750000AD8B4B9EF05F0C4EF63
:100B700005F00650010AD8B4A5EF05F0030AD8B471
:100B8000AAEF05F0C4EF05F00950E4EC05F01200FF
:100B9000046E838004380F0B30EC05F08382030E63
:100BA000036E980EE82EFED7032EFCD783920450D6
:100BB00030EC05F08382030E036E980EE82EFED70C
:100BC000032EFCD783921200046E839004380F0B1F
:100BD00030EC05F08382030E036E980EE82EFED7EC
:100BE000032EFCD78392045030EC05F08382030E71
:100BF000036E980EE82EFED7032EFCD783921200C8
:100C0000A80EF66E0C0EF76E000EF86E00EE34F0C5
:100C100010EE12F00900F5CFEEFFE550E150FAE1D9
:100C200000EE21F0130EEE6AE806FDE1000EF86E0C
:100C30000001F6EF04F026EF06F005C0F6FF080EFF
:100C4000F76E0800F550C8EC05F0052A05C0F6FF60
:100C5000080EF76E0800F5500009D8A432EF06F030
:100C600034EF06F01DEF06F0120001500302F3CF3F
:100C700005F0F4CF06F001500402F35006260250AE
:100C80000302F350062605C001F006C002F0120070
:100C9000010EE4EC05F0060E056E300EE82EFED7D0
:100CA000052EFCD700D012003132334134353642A4
:100CB000373839432A302344D204000E946EF00EA4
:100CC000936E6AEC05F075EC06F012009490828049
:100CD00082808282120094908280828082921200AE
:100CE00094908290829082821200F00EC116C2808F
:020CF0001200F0
:020000040030CA
:0E000000000C1F1FFF8385FF0FC00FE00F4095
:00000001FF
