:04000000C2EF04F057
:1008000000000F0EC16E000E936E92809292929431
:1008100092969298929A80A010EF04F012EF04F052
:1008200023EF04F0210E106E760EE82EFED7102E68
:10083000FCD700D080B01FEF04F021EF04F01AEFD6
:1008400004F00B4A0C2A0CBE2FEF04F00C5009E107
:10085000070E0B5CD8A02FEF04F031EF04F068EF27
:1008600004F0000E0A6E000E096E000E066E010EF8
:10087000056E89928984A5EC04F0000E066E000EC8
:10088000056E000E086E010E076E000E046E010E5E
:10089000036E000E026E000E016E899489868988AF
:1008A000899A88EC04F0000E0A6E010E096E000EA3
:1008B000046E000E036E000E026E010E016E898240
:1008C0008998898A000E0C6E000E0B6E7CEF04F086
:1008D000000E0A6E010E096E000E026E010E016E10
:1008E000000E086E000E076E898205B002D0899452
:1008F00001D089848996898A410E106EEE0EE82E09
:10090000FED7102EFCD700D00BEF04F000EF00F064
:10091000000E0F6E000E0E6E410E0D6EEE0EE82EE6
:10092000FED70D2EFCD700D00E4A0F2A0FBEA2EF25
:1009300004F0DC0E0E5C050E0F58D8A0A2EF04F0F8
:10094000A4EF04F08CEF04F01200000E0F6E000E06
:100950000E6E410E0D6EEE0EE82EFED70D2EFCD75C
:1009600000D00E4A0F2A0FBEBFEF04F0E80E0E5C57
:10097000030E0F58D8A0BFEF04F0C1EF04F0A9EFA9
:1009800004F0120000EE01F00C0EEE6AE806FDE144
:06099000000101EF04F07C
:020000040030CA
:0E000000000C1F1FFF8385FF0FC00FE00F4095
:00000001FF
