:0400000079EF04F0A0
:1008000000000F0EC16E000E936E92809282928451
:1008100080A00DEF04F00FEF04F02FEF04F0210E95
:10082000036E760EE82EFED7032EFCD700D080B0E4
:100830001CEF04F01EEF04F017EF04F0014A022A47
:1008400002BE29EF04F00204D8A029EF04F02BEF38
:1008500004F02FEF04F0000E026E000E016E80A275
:1008600034EF04F036EF04F052EF04F0210E036E83
:10087000760EE82EFED7032EFCD700D080B243EFD1
:1008800004F045EF04F03EEF04F00106D8A00206A4
:1008900002BE4FEF04F04DEF04F052EF04F0000EF3
:1008A000026E016880A457EF04F059EF04F06CEF7A
:1008B00004F0210E036E760EE82EFED7032EFCD731
:1008C00000D080B466EF04F068EF04F061EF04F04C
:1008D000000E026E000E016E01C08AFF820E036ED2
:1008E000DE0EE82EFED7032EFCD708EF04F000EF53
:0C08F00000F0026A016A000101EF04F050
:020000040030CA
:0E000000000C1F1FFF8385FF0FC00FE00F4095
:00000001FF
