:0400000045EF04F0D4
:1008000000000F0EC16E000E956E9690969224BE5B
:1008100013EF04F0245009E1100E235CD8A013EF6D
:1008200004F015EF04F017EF04F043EF04F0235049
:10083000020DF350010FD96EDA6ADF508C6E23B0CF
:1008400024EF04F026EF04F028EF04F08D908D8261
:10085000030E226E8A0E216E560EE82EFED7212E32
:10086000FCD7222EFAD7234A242A24BE41EF04F0D3
:10087000245009E1100E235CD8A041EF04F043EFAF
:1008800004F017EF04F000EF00F0B00EF66E080E63
:10089000F76E000EF86E00EE01F010EE20F0090089
:1008A000F5CFEEFFE550E150FAE1000101EF04F071
:1008B0003F0006005B004F0066006D007D000700F2
:1008C0007F00670077007C0039005E0079007100CE
:020000040030CA
:0E000000000C1F1FFF8385FF0FC00FE00F4095
:00000001FF
