:040000008BEF08F08A
:1008000000001A50800B276E1A501A242E6E19AE53
:100810000CEF04F00EEF04F00FEF04F02E802E50DA
:10082000D8B415EF04F017EF04F02CEF04F02E28E5
:10083000D8A41DEF04F01FEF04F027EF04F0000E22
:10084000176E000E186E000E196E000E1A6E198EBD
:10085000000E1A6E34EF04F0000E176E000E186EC4
:10086000000E196E000E1A6E1E50800B271A1E50B5
:100870001E242F6E1DAE3FEF04F041EF04F042EF57
:1008800004F02F802F50D8B448EF04F04AEF04F062
:100890005FEF04F02F28D8A450EF04F052EF04F0DB
:1008A0005AEF04F0000E1B6E000E1C6E000E1D6E43
:1008B000000E1E6E1D8E000E1E6E67EF04F0000E01
:1008C0001B6E000E1C6E000E1D6E000E1E6E1B5069
:1008D0001C101D101E10D8A470EF04F072EF04F06D
:1008E0008AEF04F0000E176E000E186E000E196EDF
:1008F000000E1A6E800E19127F0E1A1227501A124D
:1009000017C017F018C018F019C019F01AC01AF063
:10091000CDEF05F02E50D8A490EF04F092EF04F044
:100920009CEF04F0000E176E000E186E000E196E8C
:10093000000E1A6ECDEF05F02F502EC01FF0206A6A
:100940001F5E000E205A7F0E1F24286E000E2020EE
:10095000296E17C023F018C024F019C025F01AC062
:1009600026F0000E176E000E186E000E196E000EA7
:100970001A6E000E2A6E000E2B6E000E2C6E000EEC
:100980002D6E000E2F6EFDEF04F02F50D8B4CBEF7C
:1009900004F0CDEF04F0E4EF04F0D89023362436D1
:1009A00025362636D8901736183619361A362DAE13
:1009B000DCEF04F0DEEF04F0DFEF04F01780D890F6
:1009C0002A362B362C362D361B50235C1C502458CF
:1009D0001D5025581E502658D8A0F1EF04F0F3EF13
:1009E00004F0FCEF04F02D8C1B50235E1C50245AA5
:1009F0001D50255A1E50265A2F2A190E2F6403EF18
:100A000005F005EF05F0C5EF04F023502410251084
:100A10002610D8B40EEF05F010EF05F028EF05F022
:100A20002A8028EF05F0D8901736183619361A366E
:100A30002DAE1DEF05F01FEF05F020EF05F017803C
:100A4000D8902A362B362C362D362806D8A02906E3
:100A500019AE2DEF05F02FEF05F013EF05F0000EA6
:100A60002F6E2DAE36EF05F038EF05F05CEF05F098
:100A7000FF0E2A141F6EFF0E2B14206EFF0E2C1477
:100A8000216E7F0E2D14226E1F5020102110221077
:100A9000D8B44DEF05F04FEF05F053EF05F0010E20
:100AA0002F6E5CEF05F017A058EF05F05AEF05F038
:100AB0005CEF05F04FEF05F02F50D8B462EF05F072
:100AC00064EF05F088EF05F0010E1726000E1822DE
:100AD00019221A221AA06FEF05F071EF05F088EFC6
:100AE00005F017C01FF018C020F019C021F01AC07F
:100AF00022F022342232213220321F321FC017F05E
:100B000020C018F021C019F022C01AF0284A292A62
:100B100029BE93EF05F0295008E12828D8A093EFCB
:100B200005F095EF05F0A0EF05F0000E296E28689E
:100B3000000E176E000E186E000E196E000E1A6E63
:100B400029BEADEF05F0295006E12804D8B0ABEF7F
:100B500005F0ADEF05F0BBEF05F0000E296E000EBD
:100B6000286E000E176E000E186E000E196E000E25
:100B70001A6E000E276E28C02EF02EA0C2EF05F0D0
:100B8000C4EF05F0C7EF05F0198EC8EF05F0199E08
:100B9000D8902E301A6E7EEF04F01200116E1150B4
:100BA000D8B4D5EF05F0D7EF05F0F9EF05F00CBE9E
:100BB000DEEF05F0DCEF05F0F9EF05F009C00DF010
:100BC0000AC00EF00BC00FF00CC010F00D1E0E1E70
:100BD0000F1E101E0D2A000E0E220F2210220DC015
:100BE00013F00EC014F00FC015F010C016F001EF96
:100BF00006F009C013F00AC014F00BC015F00CC0C9
:100C000016F009500A100B100C10D8A40AEF06F0C9
:100C10000CEF06F016EF06F0000E096E000E0A6EDD
:100C2000000E0B6E000E0C6EA7EF06F0960E126E05
:100C300020EF06F0122AD8901632153214321332F1
:100C4000000E13140D6E000E14140E6E000E15140B
:100C50000F6EFE0E1614106E0D500E100F101010A9
:100C6000D8A435EF06F037EF06F01AEF06F045EF9F
:100C700006F0122A010E1326000E14221522162247
:100C8000D8901632153214321332000E13140D6E32
:100C9000000E14140E6E000E15140F6EFF0E1614B7
:100CA000106E0D500E100F101010D8A45AEF06F051
:100CB0005CEF06F039EF06F064EF06F01206D8900C
:100CC000133614361536163615BE69EF06F06BEF7F
:100CD00006F073EF06F0020E126071EF06F073EF8C
:100CE00006F05EEF06F012B078EF06F07AEF06F04D
:100CF0007BEF06F0159ED890123212C00DF00E6AEE
:100D00000F6A106A0DC010F00F6A0E6A0D6A0D505E
:100D100013120E5014120F501512105016121150BB
:100D2000D8B495EF06F097EF06F09FEF06F00CBEF3
:100D30009EEF06F09CEF06F09FEF06F0168E13C0B4
:100D400009F014C00AF015C00BF016C00CF0120028
:100D5000000E936EF00E956EC7EC08F0000E026E5A
:100D6000000E016E3DEC08F001C042F002C043F0FD
:100D7000000E026E010E016E3DEC08F001C040F065
:100D800002C041F0140E1B6EAE0E1C6E230E1D6EC3
:100D9000410E1E6E000E046E020E036E4050422481
:100DA000016E41504320026EDBEC07F001C009F0F8
:100DB00002C00AF0000E0ABEFF0E0B6E0C6E010E92
:100DC000CEEC05F009C017F00AC018F00BC019F0FE
:100DD0000CC01AF001EC04F017C030F018C031F06C
:100DE00019C032F01AC033F058EC07F030C03EF0B2
:100DF00031C03FF03EC001F03FC002F0000E046E73
:100E00000A0E036EDBEC07F001C03CF002C03DF0BF
:100E10003C50020DF350600FD96EDA6ADF508A6ED3
:100E20008C908C82020E3B6E450E3A6EAA0EE82E16
:100E3000FED73A2EFCD73B2EFAD73CC001F03DC07E
:100E400002F0FF0E046EF60E036EA4EC08F03E50A6
:100E500001244A6E3F5002204B6E4A50020DF3505F
:100E6000600FD96EDA6ADF508A6E8C808C92020E27
:100E70003B6E450E3A6EAA0EE82EFED73A2EFCD7F0
:100E80003B2EFAD73FBE4EEF07F03F5009E1470E29
:100E90003E5CD8A04EEF07F050EF07F053EF07F09D
:100EA0008C84AEEF06F08C94AEEF06F000EF00F00D
:100EB00032343334396E3950D8A461EF07F063EF20
:100EC00007F06DEF07F0000E306E000E316E000E71
:100ED000326E000E336EDAEF07F030C034F031C0FE
:100EE00035F032C036F033C037F0200E7DEF07F01A
:100EF000D8903732363235323432E82E78EF07F078
:100F00003450386E328EFF0E3016FF0E3116FF0E43
:100F10003216000E3316960E395E39BE94EF07F086
:100F200092EF07F0AAEF07F03950800A970FD8B078
:100F30009CEF07F09EEF07F0A0EF07F063EF07F0DC
:100F4000D8903332323231323032393EA0EF07F0AE
:100F5000C2EF07F01F0E3964B0EF07F0B2EF07F0F1
:100F6000BAEF07F063EF07F0D890303631363236FB
:100F7000333639063950D8A4C0EF07F0C2EF07F076
:100F8000B4EF07F03850D8B4C8EF07F0CAEF07F055
:100F9000D2EF07F0331E321E311E306C000E3122AC
:100FA0003222332230C030F031C031F032C032F062
:100FB00033C033F01200000E066E04BEE4EF07F0FB
:100FC000E2EF07F0EAEF07F0036C041ED8B0042A42
:100FD000010E066E02BEF1EF07F0EFEF07F0F7EF3C
:100FE00007F0016C021ED8B0022A010E061A000E8C
:100FF000086E000E076E03500410D8B402EF08F01C
:1010000004EF08F02CEF08F0010E056E0CEF08F06D
:10101000D89003360436052A04AE11EF08F013EF1A
:1010200008F008EF08F0D890073608360350015C46
:1010300004500258D8A01FEF08F021EF08F026EF67
:1010400008F00350015E0450025A0780D890043221
:101050000332052E13EF08F00650D8B432EF08F033
:1010600034EF08F038EF08F0076C081ED8B0082AF3
:1010700007C001F008C002F0120001C003F0D890D0
:101080000336D89003363C0E0316C250C30B031030
:10109000C26EC2B24EEF08F052EF08F0036A032AA4
:1010A00053EF08F0036A010E046E032A5AEF08F0AA
:1010B000D8900436032E58EF08F0C2B062EF08F063
:1010C00066EF08F0056A052A67EF08F0056A010E69
:1010D000066E052A6EEF08F0D8900636052E6CEFE6
:1010E00008F006500410C212C2B279EF08F07BEF8C
:1010F00008F074EF08F0C350C4CF03F0046A03C0D3
:1011000004F0036A0310076E0450086E07C001F074
:1011100008C002F012006E0EF66E110EF76E000E91
:10112000F86E00EE60F010EE20F00900F5CFEEFF53
:10113000E550E150FAE100EE44F0080EEE6AE806F0
:10114000FDE10001A8EF06F001500302F3CF05F026
:10115000F4CF06F001500402F350062602500302B9
:10116000F350062605C001F006C002F012003F0051
:1011700006005B004F0066006D007C0047007F00AA
:10118000670077007C0039005E007900710092688A
:101190000D0EC16EB50EC06E000EC46E000EC36E95
:0211A00012003B
:020000040030CA
:0E000000000C1F1FFF8385FF0FC00FE00F4095
:00000001FF
