:04000000B7EF04F062
:1008000000000F0EC16E000E936E929080B00BEF41
:1008100004F00DEF04F006EF04F0000E086E000E79
:10082000076E08BE1DEF04F0085009E1080E075CD2
:10083000D8A01DEF04F01FEF04F021EF04F05CEFEF
:1008400004F007C001F0020E0126010E026E012A1B
:100850002CEF04F0D8900236012E2AEF04F007C0E6
:1008600003F0010E0326010E046E032A3AEF04F092
:10087000D8900436032E38EF04F007C005F0010EBF
:10088000066E052A46EF04F0D8900636052E44EF92
:1008900004F00650041002108A6E020E026E450E1D
:1008A000016EAA0EE82EFED7012EFCD7022EFAD733
:1008B000074A082A11EF04F0000E0A6E080E096EAE
:1008C0000ABE67EF04F065EF04F069EF04F0A5EFEE
:1008D00004F009C001F0020E0126010E026E012A89
:1008E00074EF04F0D8900236012E72EF04F009C0C4
:1008F00003F0010E0326010E046E032A82EF04F0BA
:10090000D8900436032E80EF04F009C005F0010EE4
:10091000066E052A8EEF04F0D8900636052E8CEF71
:1009200004F00650041002108A6E020E026E450E8C
:10093000016EAA0EE82EFED7012EFCD7022EFAD7A2
:100940000906D8A00A0660EF04F080A0AAEF04F020
:10095000ACEF04F0A5EF04F0820E016EDE0EE82E7F
:10096000FED7012EFCD706EF04F000EF00F00001E7
:0409700001EF04F09F
:020000040030CA
:0E000000000C1F1FFF8385FF0FC00FE00F4095
:00000001FF
